:020000040800F2
:1000000070050020A10100084B2300086F210008A3
:100010004923000829080008412B000800000000BF
:10002000000000000000000000000000F9240008AB
:1000300045080008000000004D230008FB240008CC
:10004000BB010008BB010008BB010008BB010008A0
:10005000BB010008BB010008BB010008BB01000890
:10006000BB010008BB010008BB010008BB01000880
:10007000BB010008BB010008BB010008BB01000870
:100080002D08000839080008BB010008BB01000862
:10009000BB010008BB010008BB010008BB01000850
:1000A000BB010008BB010008BB010008BB01000840
:1000B000AD2500080000000000000000BB010008A2
:1000C000BB010008BB010008BB010008BB01000820
:1000D000BB010008BB010008352B0008BB0100086C
:1000E000BB010008BB010008000000000000000088
:1000F0000000000000000000000000000000000000
:1001000000000000BB01000800000000BB01000867
:100110000000000000000000BB010008BB01000857
:10012000BB010008BB010008BB010008BB010008BF
:10013000BB010008000000000000000000000000FB
:10014000BB010008BB010008BB0100080000000063
:10015000BB010008BB010008BB010008BB0100088F
:10016000BB010008BB010008BB0100080000000043
:10017000BB010008BB0100080000000000000000F7
:10018000BB010008BB010008BB010008DFF80CD070
:1001900000F038FB0048004781340008700500205B
:1001A0000648804706480047FEE7FEE7FEE7FEE711
:1001B000FEE7FEE7FEE7FEE7FEE7FEE7692500084B
:1001C0008D0100082DE9F05F0546002092469B4610
:1001D00088460646814640241BE02846414647465D
:1001E000224600F0BAF953465A46C01A914110D33C
:1001F00011461846224600F0A1F92D1A67EB0108B6
:100200004F4622460120002100F098F917EB000923
:100210004E41201EA4F10104DFDC484631462A4647
:10022000434600F000B830BCBDE8C09FD2B201E048
:1002300000F8012B491EFBD270470022F6E710B5EB
:1002400013460A4604461946FFF7F0FF204610BD44
:100250002DE9FE4F804681EA0300C00F0C46009056
:1002600021F0004123F00045B8EB0200A94105D27E
:100270004046214690461C460B46024623F000406D
:10028000104347D0270DC7F30A00C3F30A51029069
:10029000401A019040286BDAC3F3130040F4801B2E
:1002A0000098924620B10023D2EB030A63EB0B0BBC
:1002B00001985946C0F14002504600F03FF9064609
:1002C0000D4650465946019A00F057F910EB0800C8
:1002D0006141002487EA115284EAE7731A4340D04F
:1002E000009A62B3019A012A4FEA075215DC001BFB
:1002F00061EB02014FF0004202EA0752CDE90042F1
:10030000001C41F5801132462B4600F08EF903B0F7
:1003100000F045B840462146F9E7001B61EB0201B9
:10032000001C41F5801300185B412018A2F500174E
:1003300047EB030140EAD570B6196D4111E06D0835
:100340004FEA360645EAC0754FEA0752001B61EBDB
:100350000201001C41F5801149084FEA30000019E4
:10036000514132462B4603B000F01CB800F04EB9A4
:100370000098012240000023D0EB020263EBE073FF
:10038000009821464FEAE074B8EB000061EB0401ED
:10039000E9E783F000435BE781F0004158E730BCB8
:1003A000BDE8C08F30BCBDE8C04FFFF7DFBF2DE90F
:1003B000FE4F81EA030404F0004421F00041009460
:1003C0004FF0000B23F0004350EA01045ED052EAE4
:1003D00003045BD0C3F30A54C1F30A552C44A4F2BE
:1003E000F3340194A0FB0254C1F3130141F48011D2
:1003F000C3F3130343F4801301FB024400FB034ED9
:10040000840A970A44EA815447EA8357A4FB0768A1
:1004100002958D0A05FB07854FEA932C04FB0C54CB
:100420002705029D4FEA065847EA1637B5EB08053F
:100430006EEB070C870E920E47EA811742EA831291
:10044000A7FB0201B6EB0B0164EB00042B0D43EAA2
:100450000C335E1844EB1C50DA465146E7FB0201B0
:10046000C5F313044FEA0B3343EA14534FEA043243
:10047000019C43EA0603A4F10C040294009CCDE91C
:1004800000B400F0D2F803B000F003B80020014639
:10049000F9E730BCBDE8C08F0EB540F233410291A0
:1004A0000021CDE900110A460B4600F0BEF803B06A
:1004B00000BD00F0004230F000400AD0C10D01F54F
:1004C0006071C0F3160042EA0151C20840071143AF
:1004D000704700200146704701F0004330B421F01E
:1004E000004150EA010206D00A0DA2F56072C1F384
:1004F0001301002A02DC30BC00207047440F44EA9C
:10050000C104C100E01830BC00EBC25000F047B895
:1005100030B50B46014600202022012409E021FAD3
:1005200002F59D4205D303FA02F5491B04FA02F5D0
:100530002844151EA2F10102F1DC30BD202A04DBA3
:10054000203A00FA02F1002070479140C2F12003E6
:1005500020FA03F3194390407047202A04DB203A25
:1005600021FA02F00021704721FA02F3D040C2F1D3
:1005700020029140084319467047202A06DBCB171A
:10058000203A41FA02F043EAE07306E041FA02F34E
:10059000D040C2F12002914008431946704700291B
:1005A000A8BF7047401C490008BF20F001007047F9
:1005B00010B4B0FA80FC00FA0CF050EA010404BF59
:1005C00010BC704749B1CCF1200421FA04F411FAAF
:1005D0000CF118BF012121430843A3EB0C01CB1DF3
:1005E0004FEA00614FEA102042BF002010BC704764
:1005F00000EBC35010440029A4BF10BC7047401C3E
:10060000490008BF20F0010010BC704710B5141E4F
:1006100073F1000408DA401C41F1000192185B41BB
:100620001A4301D120F0010010BD2DE9F04D924692
:100630009B4611B1B1FA81F202E0B0FA80F22032A9
:100640009046FFF77BFF04460F4640EA0A0041EA66
:100650000B0153465A46084313D0114653EA010092
:1006600019D0C8F140025046FFF777FF05460E4605
:10067000504659464246FFF761FF084305D0012026
:1006800004E020463946BDE8F08D0020054346EAE7
:10069000E0762C4337430A986305E40AA0EB080090
:1006A0000022FD0A44EA47540A3002D500200146E0
:1006B000E9E7010510196941DDE9084500196941BB
:1006C000BDE8F04DA2E72DE9F04D81EA030404F006
:1006D000004B21F0004514464FF0000A23F0004182
:1006E00050EA050220D054EA01021DD0C5F30A5792
:1006F0000246C5F31303C1F31300C1F30A5640F4D5
:10070000801543F48013A7EB0608101BD64608F2A9
:10071000FD3873EB050002D308F1010801E09218DF
:100720005B41B8F1000F03DA00200146BDE8F08D0F
:1007300000204FF48011064684460EE0171B73EB31
:10074000050705D3121B63EB050306434CEA010CB6
:1007500049084FEA300092185B4150EA0107EDD199
:1007600052EA030012D082EA040083EA050108433A
:1007700005D0101BAB4106D20122002306E0002267
:100780004FF0004302E06FF0010253101AEB060035
:100790004CEB085110EB0A0041EB0B01BDE8F04DAA
:1007A000FFF734BFC1F30A52C1F3130140F2FF3324
:1007B00041F480119A4202DA00200146704740F26B
:1007C00033439A42A2F2334202DC5242FFF7C5BEE3
:1007D000FFF7B4BE30B5041E71F1000404DB4FF026
:1007E0000044404264EB0101141E73F1000405DB78
:1007F0001C464FF00043524263EB0403994208BF8A
:10080000904230BD064C074D06E0E06840F0010321
:1008100094E8070098471034AC42F6D3FFF7BAFCCF
:100820002835000848350008FEE70000014800F0C0
:100830007EB8000028010020014800F078B80000D0
:10084000E00000207047704770B505462DED048B21
:1008500000249FED1E8A29E01D4E0122082130460A
:1008600000F002FA012000F01FF9002208213046B2
:1008700000F0FAF9C82000F017F916488088FFF751
:100880000BFE9FED151B53EC112BFFF790FD41EC78
:10089000190B18EE100AFFF70CFE53EC192BFFF79B
:1008A000D7FCFFF719FE08EE100A641CAC42D3DB3C
:1008B00000EE105AB8EEC00AC8EE000ABDEC048B78
:1008C000BDEEE00A10EE100A70BD0000000000004E
:1008D00000040048000000209CC420B07268913FD2
:1008E00010B590F825100024022903D00421C1631B
:1008F00001241AE001680A6822F00E020A60016809
:100900000A6822F001020A6090F84410036C01F0BA
:100910001C02012101FA02F25A6080F82510002120
:1009200080F82410816B01B18847204610BDF0B4D7
:10093000016C0C6801680D6890F8442002F01C06F8
:10094000042202FA06F3234211D06B070FD50B687D
:100950009B0603D40B6823F004030B6090F844104B
:1009600001F01C018A40016C4A60016B1DE002230A
:1009700003FA06F727424FF0000C4FF0010218D09F
:10098000AF0716D50C68A40605D40C6824F00A0439
:100990000C6080F8252090F8441001F01C018B4079
:1009A000016C4B6080F824C0C16A00291AD0F0BCE9
:1009B00008470823B340234214D02B0712D50B68F5
:1009C00023F00E030B6090F84410036C01F01C013F
:1009D00002FA01F15960C26380F8252080F824C032
:1009E000416BE2E7F0BC704770B568B12B4C03680F
:1009F00014212B4AA34209D22A4C1C44B4FBF1F126
:100A00008900C0E910210BE0012070BD234C644235
:100A10001C44B4FBF1F189004164204908390164A8
:100A2000022180F825101C6847F6F0718C43D0E94C
:100A300002152943D0E904563543294385692943E2
:100A4000C5692943056A2943214319608168B1F5C5
:100A5000804F19D0036C0F21934202D152F8A83F66
:100A600002E00E4AA032136890F8444004F01C04DF
:100A7000A1408B43136090F84430416803F01C039D
:100A800099401368194311600021C163012280F865
:100A9000252080F82410084670BD0000080402409C
:100AA00000000240F8FFFDBF70B5044600F0E2F818
:100AB0000546601C02D004484068044400F0DAF89F
:100AC000401BA042FAD370BD0C0000202DE9F84F66
:100AD000DFF864B100234FF0010C4FF0030A4FF030
:100AE0000F090BF1040EA0E00CFA03F6324072D0AD
:100AF0004C68022C01D0122C0ED1DC0800EB8408CB
:100B0000D8F820405D07EF0E09FA07F5AC430D69F0
:100B1000BD402543C8F8205007685D0091F8048067
:100B20000AFA05F408F00308A74308FA05F848EAAA
:100B30000708C0F800804F68012F05D0022F03D0AE
:100B4000112F01D0122F11D18768D1F80C80A74343
:100B500008FA05F848EA0708C0F808804768B7436C
:100B60000E79C6F300169E403E434660C668A64313
:100B70008C68AC403443C4604C68E40054D52F4CBE
:100B8000256E45F001052566246E23F0030504F06B
:100B9000010400942A4C2E19B4689D072F0F09FAFE
:100BA00007F5AC43B0F1904F04D0264DA84203D1D5
:100BB000012512E0002510E0234DA84201D10225B5
:100BC0000BE0224DA84201D1032506E0204DA842AA
:100BD00002D1042501E027E00725BD402543B5608B
:100BE000DBF800405D464E689443F60300D514439D
:100BF0002C60DEF8004075464E689443B60300D57D
:100C000014432C600C4D08352C684E689443F60252
:100C100000D514432C60084D0C352C684E68944365
:100C2000B60200D514432C605B1C0A6832FA03F448
:100C30007FF45AAF00F00EB80004014000100240EB
:100C4000000001400004004800080048000C004873
:100C50000010004818BCBDE8E08F42690A4201D08C
:100C600081627047816170470AB18161704781621A
:100C70007047000001488068704700000C000020A9
:100C80000248816842681144816070470C0000206E
:100C900010B50024032000F071F8002000F008F8DF
:100CA00008B1012401E000F025F8204610BD000045
:100CB00070B50E4E05460024706898B14FF47A71F5
:100CC000B1FBF0F00A490968B1FBF0F000F09AFDC1
:100CD00040B9102D06D200222946501E00F02EF8F1
:100CE000356000E00124204670BD00000C000020AB
:100CF00018000020094808B5016E41F001010166A5
:100D0000016E01F001010091816D41F0805181651A
:100D1000806D00F08050009008BD0000001002407F
:100D2000002809DB00F01F020121914040098000EA
:100D300000F1E020C0F8001170470000F0B40E4B45
:100D40001B680C46C3F30223C3F10705042D00D929
:100D50000425191D072901D2002300E0DB1E01260E
:100D600006FA05F1491E214099409E40761E164024
:100D70003143F0BC01F0F6BE0CED00E0064900F096
:100D8000070208684FF6FF03184040EA0220034AB2
:100D900010430860704700000CED00E00000FA0509
:100DA0001649B0F5007F0868C0F3412009D0022839
:100DB00005D0086820F4C06040F48060086000201E
:100DC00070470128FBD0086820F4C06040F4007030
:100DD00008600B483222006850430A4AB0FBF2F028
:100DE000401C00E0401E4A69520501D50028F9D197
:100DF00048694005E3D503207047000000700040BB
:100E00001800002040420F000248006800F4C06053
:100E100070470000007000402DE9F84F044600279D
:100E20000088A84D3E46000515D5606C60B1B0F550
:100E3000000F04D0B0F5400F2BD001270AE0E8687E
:100E400040F48030E86024E00021201D01F080FAA9
:100E500007001ED03E46206880033AD5A86D4FF0AB
:100E60000008C00009D4A86D40F08050A865A86DA6
:100E70004FF0010800F080500090DFF84CA2DAF843
:100E8000001041F48071CAF80010FFF7F3FE8146AC
:100E900010E0D5F88800616C20F440000843C5F8E4
:100EA0008800D8E7FFF7E6FEA0EB0900022801D989
:100EB000032705E0DAF80000C005F3D5002F7DD048
:100EC0004FEA0706B8F1000F03D0A86D20F080505C
:100ED000A8652078C00707D0D5F88800216A20F0DF
:100EE00003000843C5F888002078800707D5D5F8A7
:100EF0008800616A20F00C000843C5F8880020785B
:100F0000400707D5D5F88800A16A20F030000843D3
:100F1000C5F888002078800607D5D5F88800E16AF2
:100F200020F440600843C5F888002088800507D574
:100F3000D5F88800E16B20F440200843C5F888000C
:100F40002088400507D5D5F88800216C20F4401092
:100F50000843C5F888002078400607D5D5F88800F2
:100F6000216B20F440500843C5F888002078000623
:100F700007D5D5F88800616B20F440400843C5F8D8
:100F800088002088C00507D5D5F88800A16B20F41B
:100F900040300843C5F8880020684FF00067000320
:100FA0004FF0806850D5D5F88800A16C20F04060E3
:100FB0000843C5F88800A06CB84200E005E03BD1CA
:100FC000E86840F48010E8603EE0D5F8900010F446
:100FD000407014D0A16D814211D0D5F89000D5F8A1
:100FE000901020F4407041F48031C5F89010D5F88D
:100FF000901021F48031C5F89010C5F89000C0071A
:1010000011D0FFF737FE074641F2883907E000BFED
:10101000FFF730FEC11B494501D9032652E7D5F839
:1010200090008007F4D5D5F89000A16D20F44070B1
:101030000843C5F8900045E7404505D10121201D32
:1010400001F086F900B106462068400317D5D5F8AF
:101050008800E16C20F040600843C5F88800E06C2F
:10106000B84204D1E86840F48010E86007E04045E9
:1010700005D10121201D01F06BF900B10646208841
:10108000400411D5D5F88800216D20F04050084368
:10109000C5F88800206DB0F1805F05D10221201DC8
:1010A00001F056F900B106462088000406D555F82F
:1010B000880F616D20F0804008432860304600F0C2
:1010C00005B80000001002400070004018BCBDE8E8
:1010D000E08F00002DE9F0470F46050058D0404E44
:1010E000306800F00700B84209D2306820F00700ED
:1010F00038433060306800F00700B84248D12878A3
:10110000384CC0072CD06868032811D0022812D0B0
:10111000216898B1490500293ADAA16821F0030154
:101120000143A160FFF7A6FD804641F2883910E037
:1011300021688901EFE721688903ECE78907EAE77D
:10114000FFF798FDA0EB0801494502D90320BDE84F
:10115000F087A068696800F00C00B0EB810FEFD158
:101160002878800705D5A068A96820F0F00008431A
:10117000A060306800F00700B8420BD9306820F05A
:10118000070038433060306800F00700B84201D0F3
:101190000120DCE72878400705D5A068E96820F43D
:1011A000E0600843A0602878000706D5A068296998
:1011B00020F4605040EAC100A06000F03FF8A16850
:1011C000094AC1F30311515C01F01F01C8400749EE
:1011D000086007480068BDE8F047FFF769BD0000F8
:1011E0000020024000100240E034000818000020F7
:1011F0000C0000200548064900688968054AC1F3CB
:101200000221515C01F01F01C84070471800002006
:10121000001002402035000805480649006889682A
:10122000054AC1F3C221515C01F01F01C84070475B
:1012300018000020001002402035000870B5254934
:10124000002318468A68CC6812F00C0204F00306EA
:10125000214C4FEA640509D00C2A05D0042A32D06B
:10126000082A00D1284670BD012E10D10B681B073B
:1012700004D4D1F89430C3F3032302E00B68C3F322
:101280000313164E56F82330DAB10C2AEBD1C86896
:1012900000F00300022818D0032818D01846CA68A6
:1012A000CB68C2F30212C3F306234343521CB3FBC1
:1012B000F2F2C868C0F34160401C4000B2FBF0F09D
:1012C00070BD184670BD204670BD2046E7E7284631
:1012D000E5E70000001002400024F400F0340008AC
:1012E0002DE9F84304006ED0FD4DA86800F00C060F
:1012F000E86800F003072078C00663D576B10C2EAD
:1013000001D1012F0AD0A0690028286878D040F0C8
:1013100001002860FFF7AEFC80465BE0286880078C
:1013200002D5A0690028DED0216A2868000703D50D
:10133000286800F0F00004E0D5F89400F02202EAFA
:101340001010814216D9084601F098F800283AD1C9
:10135000286840F0080028602868216A20F0F00022
:10136000084328606868E16920F47F4040EA012072
:10137000686015E0286840F0080028602868216A45
:1013800020F0F000084328606868E16920F47F409D
:1013900040EA01206860206A01F070F80028D6D188
:1013A000FFF74CFFA968CF4AC1F30311515C01F06C
:1013B0001F01C840CC490860CC480068FFF778FCA2
:1013C00000287DD12DE0C9E0FFF754FCA0EB080018
:1013D000022876D828688007F6D5286840F00800EB
:1013E00028602868216A20F0F000084328606868B7
:1013F000E16920F47F4040EA0120686011E0FFE7E6
:1014000020F001002860FFF735FC804606E000BFB1
:10141000FFF730FCA0EB08000228DAD82868800724
:10142000F6D42078C00740D0082E18D00C2E01D159
:10143000032F14D06068B0F5803F17D0B0F5A02F0F
:10144000286817D020F480302860286820F4802095
:1014500028606068E0B1FFF70DFC804614E0286862
:10146000800322D56068002878D01EE0286840F408
:101470008030EDE740F480202860F7E7FFF7FAFBC3
:10148000A0EB08006428A4D828688003F6D50CE0F7
:10149000FFF7F0FB804605E0FFF7ECFBA0EB080050
:1014A000642896D828688003F6D4207880073BD536
:1014B000042E11D00C2E01D1022F0DD0E06801E0D6
:1014C00064E1B8E0002828681ED040F480702860ED
:1014D000FFF7D0FB07460CE0286840050CD5E06814
:1014E0000028C1D008E000BFFFF7C4FBC01B0228E2
:1014F00093D828684005F7D56868217C20F0F8501B
:1015000040EA016068600FE020F480702860FFF717
:10151000B1FB074605E000BFFFF7ACFBC01B02288C
:10152000B1D828684005F7D42078000729D560692C
:101530000028D5F8940012D040F00100C5F89400BE
:10154000FFF798FB074604E0FFF794FBC01B022857
:1015500071D8D5F894008007F6D512E04CE120F060
:101560000100C5F89400FFF785FB074605E000BFC2
:10157000FFF780FBC01B02285DD8D5F894008007D8
:10158000F6D42078400766D5A86D0027C00008D49F
:10159000A86D40F08050A865A86D012700F080502C
:1015A000009053480168C90512D40168814641F48E
:1015B00080710160FFF75EFB804605E0FFF75AFB94
:1015C000A0EB0800022836D8D9F80000C005F5D5F0
:1015D000A068012816D00528D5F8900017D020F073
:1015E0000100C5F89000D5F8900020F0040000BF7D
:1015F000C5F89000A06841F28839C0B1FFF73AFB06
:1016000080460FE0D5F8900040F00100F0E740F090
:101610000400C5F89000F5E7FFF72CFBA0EB0801EC
:10162000494508D8D5F890008007F5D50EE0FFF7BA
:1016300021FB804606E07CE0FFF71CFBA0EB0801E5
:10164000494576D8D5F890008007F5D41FB1A86D2C
:1016500020F08050A8652078800628D5606A002890
:10166000D5F8980012D040F00100C5F89800FFF7B7
:1016700001FB074605E000BFFFF7FCFAC01B02288C
:1016800057D8D5F898008007F6D510E020F0010073
:10169000C5F89800FFF7EEFA074604E0FFF7EAFA0C
:1016A000C01B022871D8D5F898008007F6D4A06A2C
:1016B000F0B30C2E71D00228286820F080702860CA
:1016C0001AD02868000103D4E86820F00300E8601D
:1016D000E86808490840E860FFF7CCFA044657E09C
:1016E00000100240E0340008180000200C00002028
:1016F00000700040FFFFEEFEFFF7BCFA064604E074
:10170000FFF7B8FA801B02283FD828688001F7D479
:10171000F4E90B016FF00F0202EB01110843218A7B
:101720004908520402EB4151A26841EA022101E05A
:1017300064E02AE00843217D4FF07E42490802EB35
:1017400041610843217B40EAC160E9682C4A1140AD
:101750000843E860286840F080702860E86840F03E
:101760008070E860FFF786FA044604E0FFF782FA2B
:10177000001B022809D828688001F7D53EE000BF89
:10178000FFF778FA001B022802D90320BDE8F8838E
:1017900028688001F4D431E0FFE70128F6D0E8683A
:1017A000E26A00F00301914226D1216B00F0700241
:1017B0000901103991421FD1626B00F4FE41B1EB77
:1017C000022F19D194F8382000F07841B1EBC26FA4
:1017D00012D1A18F00F4C00249084905A1F50011FA
:1017E000914209D194F8401000F0C06049084906C0
:1017F000A1F10071814201D00120C7E70020C5E7B7
:101800008C809D0110B5401EB0F1807F01D3012076
:1018100010BD4FF0E02460610F21601701F0A2F9C4
:101820000020A06107202061002010BD7047704794
:101830007047000070B590F83C20012A21D00124A7
:1018400080F83C40022280F83D2003685A689D6879
:101850000D4EB34203D122F470064A68324322F09F
:1018600070060A688968324325F0800529435A606A
:101870000268916080F83D40002180F83C100846E5
:1018800070BD022070BD0000002C014010B50400A6
:1018900003D094F83D0010B107E0012010BD0020F6
:1018A00084F83C00204600F00DF8022084F83D004A
:1018B000211D206800F080FE012084F83D000020FA
:1018C00010BD000010B586B0044614216846FEF72E
:1018D000B4FC2068B0F1804F27D11548816D41F0EC
:1018E00001018165816D01F001010591C16C41F03B
:1018F0000101C164C06C694600F0010005904FF41D
:1019000000400090022001900020029003900120EE
:1019100004904FF09040FFF7D9F8002211461C20A8
:10192000FFF70CFA1C20FFF7FBF906B010BD000012
:101930000010024070B5044690F83C00012817D012
:10194000012584F83C50022084F83D00226890680C
:101950002E4B184020F47F4090600868502830D00B
:101960000DDC20284DD005DC98B310283BD148E091
:10197000022070BD302844D0402834D139E060289E
:1019800028D0702806D0B0F5805F2CD0B0F5005F6D
:1019900029D10AE0CB68D1E90121206800F04FFE8F
:1019A0002068816841F0770109E0CB68D1E9012125
:1019B000206800F044FE2068816841F48041816025
:1019C00011E0CA684968206800F04BFE5021206889
:1019D00007E016E0CA684968206800F07BFE6021D5
:1019E000206800F036FE84F83D50002084F83C006A
:1019F00070BDCA684968206800F033FE4021206845
:101A0000EFE7226801461046EBE7000088FFFEFF83
:101A100070B5007F01282DD1224C234D4FF6F5766D
:101A2000207840B3012825D10021284600F0EBF9A9
:101A300020812868016A314001622868016A0162D8
:101A40000021284600F0EAF82089E188401AA080A9
:101A500080B2FEF721FD9FED151B53EC112BFEF715
:101A6000A6FC41EC100B13A053EC102B01F06AF80C
:101A70000020207070BD00210B4800F0C4F9E08008
:101A80002868016A314001622868016A41F0020158
:101A900001620021044800F0C1F801202070E088B4
:101AA000608070BD00000020200000209CC420B099
:101AB0007268913F74696D657220646174613A2542
:101AC000660D0A002DE9F041044690F83C000D46F1
:101AD00001283DD0012684F83C60022084F83D00B6
:101AE000AAB3042A46D02068082A55D0D5E9002791
:101AF000E968036A23F480530362D0F81CC0036AC8
:101B00002CF4407C4CEA07274FF6FF7C27F4704703
:101B10000CEA013139434FF4204723F4204307EA0C
:101B200002321A43C16102622068C16921F4406136
:101B3000C1612068C169AA6841EA0221C0F81C108D
:101B400084F83D60002084F83C00BDE8F08101E0AD
:101B50000220FAE7D5E90012EB68206800F092FD58
:101B60002068816921F00C01816120688169AA687F
:101B700011430FE0D5E90012EB68206800F0BCFDCE
:101B80002068816921F44061816120688169AA68C7
:101B900041EA02218161D3E7D5E9002C2F7B016A5C
:101BA00021F480710162C169036A21F0030141EAF5
:101BB0000C0121F0F00C39074FF420674CEA116159
:101BC00023F4206307EA02221A43C16102622068FB
:101BD000C16921F00C01C1612068C169AA68114383
:101BE000ACE710B5040003D094F83D0010B107E055
:101BF000012010BD002084F83C00204600F00CF8C5
:101C0000022084F83D00211D206800F0D5FC012051
:101C100084F83D00002010BD7047000010B5026838
:101C2000044631B1042908D008291DD00C2908D157
:101C30001EE0D06840F0020002E0D06840F00400EE
:101C4000D0600122206800F0EDFC206881680A4A1B
:101C50001140062906D0B1F5803F03D0016841F05C
:101C600001010160002010BDD06840F00800E7E7E6
:101C7000D06840F01000E3E70700010070B50446AB
:101C8000006801694FF00005C943890715D4C16890
:101C9000C943890711D4E91E01610120207720681A
:101CA00080698007204602D0FFF7B2FE04E000F012
:101CB000A7F8204600F0A5F8257720680169C943F8
:101CC000490717D4C168C943490713D46FF0040109
:101CD0000161022020772068806910F4407F20464F
:101CE00002D0FFF795FE04E000F08AF8204600F0ED
:101CF00088F8257720680169C943090716D4C168A7
:101D0000C943090712D46FF008010161042020774C
:101D10002068C0698007204602D0FFF779FE04E002
:101D200000F06EF8204600F06CF825772068016915
:101D3000C943C90617D4C168C943C90613D46FF093
:101D400010010161082020772068C06910F4407FED
:101D5000204602D0FFF75CFE04E000F051F8204678
:101D600000F04FF8257720680169C943C90708D1F9
:101D7000C168C943C90704D1891E0161204600F02A
:101D800041F820680169C943090609D4C168C943FB
:101D9000090605D46FF0800101612046FFF747FD79
:101DA00020680169C943C90509D4C168C943090646
:101DB00005D46FF4807101612046FFF737FD20687C
:101DC0000169C943490609D4C168C943490605D414
:101DD0006FF040010161204600F02AF82068016997
:101DE000C94389060BD4C168C943890607D46FF07B
:101DF000200101612046BDE87040FFF719BD70BDAC
:101E00007047704770470246002041B1042909D04D
:101E100008290AD00C2901D11068006C704710689D
:101E2000406B70471068806B70471068C06B7047DC
:101E300070477047704700002DE9F0410268044682
:101E4000D0691168936810F00F0F4FF000055BD058
:101E500003F0010601F49077374369D0C70707D034
:101E6000CF0505D501271762E26F42F00102E26754
:101E7000820708D5DA0706D0276802223A62E26FA5
:101E800042F00402E267420708D5DA0706D0236869
:101E900004221A62E26F42F00202E26702070AD5E8
:101EA00001F02002324306D0236808221A62E26F52
:101EB00042F00802E267E26F002A32D0800605D5C0
:101EC000880603D5216E09B120468847E06F216856
:101ED0008968490601D4000725D5204600F0C1FCD9
:101EE00020688168490619D5816821F04001816028
:101EF000E06E98B120498163E06EFEF7F1FC0028A6
:101F00000FD0E06E816B06E0860611D58E060FD5E8
:101F1000216E1EE02046BDE8F04108472046FFF74D
:101F200089FFBDE8F0812046FFF784FFE567F8E709
:101F3000C60209D55B0207D54FF480101062204617
:101F4000BDE8F041FFF775BF030605D50B0603D5C5
:101F5000616E0029DED1E4E74006E2D54806E0D50F
:101F60001168204621F040011160202161676566FB
:101F700000F0FCF8D5E700004F28000810B5040079
:101F800002D0606F10B107E0012010BD002084F87E
:101F90007000204600F026F8242060672068016861
:101FA00021F001010160204600F06AFC0128ECD01C
:101FB000606A10B1204600F0BAFB2068416821F445
:101FC000904141602068816821F02A018160206889
:101FD000016841F0010101602046BDE8104000F0B9
:101FE0000ABC00002DE9F04186B00646142168467F
:101FF000FEF723F92C493068884252D12B48816D75
:1020000041F400318165816D01F400310591C16CAD
:1020100041F00101C164C06C4FF0020800F0010002
:1020200005900C20CDE9000800240320CDE90240F2
:1020300007200490474669464FF09040FEF746FD62
:102040001C4D1B48E5E802071020802791C5194860
:1020500045F81449AC61EC612C62FEF7C5FC08B18F
:10206000FEF7F1FBB566AE62124D114848351438E3
:102070002860C5E90184C5E903476C61AC61EC6186
:1020800028462C62FEF7B0FC08B1FEF7DCFBF566D3
:10209000002211462620AE62FEF750FE2620FEF7F3
:1020A0003FFE06B0BDE8F081004400400010024051
:1020B00080000240E00000202DE9F8430446406F14
:1020C0001F4616460D4620284ED1CDB1C6B194F814
:1020D0007000012848D0012084F870004FF00008FB
:1020E000C4F87C8021206067FEF7C4FDA4F850602E
:1020F0008146A4F85260A068B0F5805F03D004E088
:102100000120BDE8F883206910B12E46002510E0BB
:1021100000260EE08021204600F0DCFCB8B9C6B1F4
:1021200016F8010B21680885B4F85200401EA4F887
:102130005200B4F852004B464FF0000200970028BE
:10214000E8D14FF04001204600F0C4FC30B103203C
:10215000D7E735F8020BC0F30800E3E720206067FB
:1021600084F870800020CCE70220CAE77047FEE7C1
:102170000D4808B5816C41F001018164806C00223A
:1021800000F00100009011461020FEF7D7FD10204E
:10219000FEF7C6FD002211461120FEF7CFFDBDE877
:1021A00008401120FEF7BCBD001002402DE9F041AF
:1021B00086B014216846FEF740F82B48C16C41F008
:1021C0000401C164C16C01F004010591C16C41F0CE
:1021D0008001C164C16C01F080010591C16C41F0C6
:1021E0000101C164C16C01F001010591C16C41F0B4
:1021F0000201C164C06C1D4E00F002004FF4005497
:102200000590002221463046FEF72EFD4FF0904704
:10221000002203213846FEF727FDDFF85480002214
:1022200008214046FEF720FD0125CDE900450024A8
:102230000294694630460394FEF748FC0320009060
:10224000CDE90154694638460394FEF73FFC082067
:102250000090CDE90154694640460394FEF736FCF0
:1022600006B0BDE8F0810000001002400008004800
:102270000004004810B58CB0002405942248049452
:102280000694079408940A94099400940194029483
:102290004FF08041039401604F21C0E901144FF6D3
:1022A000FF71C0E903148461FFF7F0FA08B1FEF78B
:1022B000CAFA4FF48050049004A91348FFF73AFB80
:1022C00008B1FEF7C0FA1048FFF78BFC08B1FEF723
:1022D000BAFA089408A90C480A94FFF7ABFA08B1B7
:1022E000FEF7B1FA0120CDE900400820CDE9024017
:1022F000002269460448FFF7E5FB002801D0FEF7FD
:10230000A2FA0CB010BD0000200000200D4810B54E
:102310000B4901604FF4E1314160002181600C22E2
:10232000C160C0E904128161C16101624162FFF7CD
:1023300025FE002803D0BDE81040FEF784BA10BD8A
:102340000044004060000020FEE770477047000036
:102350002DE9F041444C05468846E0680026810797
:1023600028680DD0E16801F00301814216D1A8B1BF
:10237000E0686968C0F30210401C88420ED120E07A
:10238000012804D0022805D0032807D108E02168DD
:10239000890701E021684905002907DB01265FE084
:1023A0002168890302D421684903F5E7E1686A6876
:1023B0006FF00F0321F0730103EB0212114301438D
:1023C000E160206820F080602060FEF753FC074643
:1023D00005E000BFFEF74EFCC01B022837D820687E
:1023E0000001F7D4B8F1000F18D0B8F1010F1DD0DB
:1023F000287D4FF07E41400801EB4060A96840EA2B
:1024000001202169194A114008432061206840F0E9
:1024100080602060FEF72EFC07461AE0A868297B42
:10242000000240EAC1602169114AECE7288A11499B
:10243000400801EB4050A96840EA012021690E4A9A
:10244000E1E700BFFEF716FCC01B022801D90326F6
:1024500006E020680001F5D52069A96908432061DC
:102460003046BDE8F081000000100240FF80FFF917
:10247000FF80FF070000E0FFFF809FFFF8B51C4DC5
:1024800006460024A86DC00002D5FEF7BDFC0DE095
:10249000A86D40F08050A865A86D00F080500090B5
:1024A000FEF7B2FCA96D21F08051A965B0F5007F5F
:1024B00004D0802E07D94FF003040AE0802E08D9FB
:1024C000A02E01D804E001D1022402E0702E00D138
:1024D00001240848016821F00701214301600068D8
:1024E00000F00700A04201D00120F8BD0020F8BD97
:1024F00000100240002002407047FEF7C1BB30B51B
:10250000ADB044216846FDF798FE142128A8FDF7D8
:1025100094FE5C2111A8FDF790FE01200224010425
:102520000A940325CDE90001CDE90B5014200D904C
:102530000720CDE90E0468461094FEF7D1FE0F2067
:10254000CDE9280500252A952B95042128A82C954E
:10255000FEF7C0FD11A81A951194FEF75DFC20024C
:10256000FEF71EFC2DB030BD0D48016841F470012E
:1025700001600C48016841F00101016000218160A7
:102580000268094B1A4002608214C260026822F499
:102590008022026081610249C0038039086070476F
:1025A00088ED00E000100240FFFFF6EA0148FFF767
:1025B00065BB00002000002070B50268164B4FF08C
:1025C0008046984201D0B04203D122F070044A689C
:1025D0002243124C124D984205D0B04203D0A04283
:1025E00001D0A84203D122F44076CA6832434E6932
:1025F00022F08002324302608A68C2620A68826204
:10260000984203D0A04201D0A84201D109690163D8
:102610000121416170BD0000002C014000400140DB
:102620000044014010B501F01F030121046A9940E4
:102630008C430462016A9A401143016210BD10B5D7
:10264000846842EA032224F47F440A4322438260DE
:1026500010BD826822F070020A4342F007018160D7
:10266000704710B5036A046A24F0010404628469A7
:1026700024F0F00444EA021423F00A020A438461BD
:10268000026210BD70B5046A24F00104046284691A
:10269000056A0E4EB04205D0B0F1804F02D00C4E0C
:1026A000B04203D124F00304144301E044F00104D8
:1026B0001A0724F0F00444EA126225F00A0301F03C
:1026C0000A0119438261016270BD0000002C0140C3
:1026D0000040014010B5036A23F0100303628369D0
:1026E000046A23F4704343EA023224F0A00343EA6D
:1026F00001118261016210BD30B5046A24F010043A
:1027000004628469056A24F4407444EA022222F4D3
:1027100070444FF6FF7202EA03322243A02425F0F0
:10272000A00304EA011119438261016230BD90F8EF
:102730002410C90706D001684A68836A22F400326F
:102740001A434A6090F82410890706D501684A6840
:10275000C36A22F480321A434A6090F82410490771
:1027600006D501684A68036B22F480221A434A6046
:1027700090F82410090706D501684A68436B22F4D3
:1027800000421A434A6090F82410C90606D5016831
:102790008A68836B22F480521A438A6090F824106E
:1027A000890606D501688A68C36B22F400521A4371
:1027B0008A6090F82410490611D501684A68036CB4
:1027C00022F480121A434A60016CB1F5801F06D1D1
:1027D00001684A68436C22F4C0021A434A6090F8C8
:1027E0002410090606D501684A68806C22F400228C
:1027F00002434A607047F8B500260446C667FEF7F4
:1028000039FA0546206800686FF07E47000708D552
:102810002B4600224FF400112046009700F05AF991
:1028200060B92068006840070AD52B4600224FF4A3
:1028300080012046009700F04DF908B10320F8BD53
:1028400020206067A06784F870600020F8BD10B594
:10285000806A0021A0F85A10A0F85210FFF7EAFA97
:1028600010BD01680A6822F490720A6001688A68E3
:1028700022F001028A6020218167002101667047F1
:102880002DE9F0410446036881680069E569014368
:102890006069002728430143844A1868844D284012
:1028A0000843186020684168E36821F440511943E7
:1028B00041602168A069914201D0236A18438B6866
:1028C00023F4306303438B607A4B21687A48994242
:1028D0000DD1D0F8880010F0030006D0012847D0B1
:1028E000022843D0032830D144E001252EE0734B69
:1028F00099420BD1D0F8880010F00C0034D0042895
:1029000036D0082832D00C281FD133E06C4B9942C6
:102910000BD1D0F8880010F0300025D0102827D037
:10292000202823D0302810D124E091420DD1D0F8B6
:10293000880010F4406017D0B0F5806F18D0B0F563
:10294000006F13D0B0F5406F14D010255D4B0026FA
:102950004FF40040914245D175B1022D0FD0042DA6
:102960000FD0082D18D10FE00025EFE70225EDE785
:102970000425EBE70825E9E7FEF73CFC03E01846F1
:1029800002E0FEF75BFCA8B3626802EB4201814201
:1029900002D8B0EB023F01D9012774E0DFF82881AB
:1029A0005DB1022D0CD0042D13D0082DF4D15008A8
:1029B0002905401846F1000105E0FEF71BFC0AE07E
:1029C00050084249F5E70023FDF7FCFBA0F54071F4
:1029D00055E0FEF733FC6268010E03025008181838
:1029E0007141F0E7E1694FF6EF7881422ED1092D70
:1029F000D2D200E047E0DFE805F006091F05220516
:102A000005052500C8E7FEF7F5FB01E0FEF704FC2D
:102A10004100606801EB5001B1FBF0F080B2A0F121
:102A200010014145B8D84FF6F0710140C0F34200A3
:102A300001432068C16026E025496068EAE7FEF7A7
:102A4000FDFBE5E74FF480316068E3E7092DA3D291
:102A5000DFE805F006091E052205050525009BE7B0
:102A6000FEF7C8FB01E0FEF7D7FB0146606801EB0B
:102A7000500100BFB1FBF0F080B2A0F11001414560
:102A80008AD82168C860266638466666BDE8F08147
:102A9000606803EB5001EDE7FEF7D0FBE5E7616806
:102AA00000EB5100B0FBF1F0E6E7000000800040D1
:102AB000F369FFEF0038014000100240004400407D
:102AC000004800400024F400FFFC0F00000024F444
:102AD0000048E8012DE9F041984617460E460446A5
:102AE000069D08E0681C06D0FEF7C4F8A0EB0800BD
:102AF000A8420BD855B12068C06936EA000017D04B
:102B00000020B842EED00020BDE8F08120680168C6
:102B100021F4D07101602068816821F00101816099
:102B200020206067A067002084F870000320EBE796
:102B30000120E6E70148FFF77FB9000060000020B0
:102B4000FEE700000FB4054B10B503A9044A029834
:102B500000F0EEF810BC5DF814FB000065340008CE
:102B60001C0000200907090E002804DB00F1E0200A
:102B700080F80014704700F00F0000F1E02080F8AA
:102B8000141D704702E008C8121F08C1002AFAD1BC
:102B900070477047002001E001C1121F002AFBD1DD
:102BA000704700002DE9FF5F82B00021DDE90430AD
:102BB000020DDDF840B0034318D044F61050A2F2E5
:102BC000FF3242431514119801281FD0A5EB0B00CA
:102BD000401C5FEA000A4FF000064E4FDFF83891C4
:102BE000B046504615D5CAF1000413E011980124EF
:102BF0004AA3012801D16FEA0B010298119AC0E99A
:102C00000031C0E9024206B000F08EB8CBF10000FE
:102C1000DFE704460021404A491842EB0450CDE961
:102C2000001012E0E00707D032463B4640464946D6
:102C3000FDF7BDFB8046894632463B4610461946A5
:102C4000FDF7B5FB06460F466410002CEAD1DDE91E
:102C50000401DDE90023BAF1000F06DAFDF7A7FB56
:102C600042464B46FDF7A3FB05E0FDF72CFD42462F
:102C70004B46FDF728FD04460E460022284BFDF783
:102C8000A9FD03D84FF0FF30014607E00022254B95
:102C900020463146FDF7DCFAFDF784FD102409E0FB
:102CA000002C0ADB0A220023FDF78CFA039B30324A
:102CB0001A55641E50EA0102F2D1641C039AC4F151
:102CC00011031444119A012A03D0012208430DD1A3
:102CD0000AE0084304D000204FF0110B119072E776
:102CE000A3EB0B056D1E0DE05B4504DD4FF000020C
:102CF00005F1010504E003DA4FF00002A5F101053A
:102D0000002AECD002981199C0E90231C0E90045CF
:102D100079E70000000014400000F03F30000000A0
:102D20000000F0430000E03F30BCBDE8C09F000061
:102D30002DE9FF4F95B09B468946064600250FE2D8
:102D4000252877D100242746F84A0121059400E080
:102D5000044316F8013F203B01FA03F01042F7D17B
:102D600030782A2811D06FF02F033078A0F130028C
:102D7000092A16D8059A44F0020402EB820203EBFA
:102D800042021044761C0590EFE759F8042B059297
:102D9000002A03DA504244F40054059044F002043F
:102DA000761C30782E2816D116F8010F44F0040452
:102DB0002A280DD06FF02F023078A0F13003092BB4
:102DC00009D807EB870302EB4303C718761CF3E728
:102DD00059F8047B761C30786C280FD006DC4C2820
:102DE00017D068280DD06A2814D104E0742810D0B8
:102DF0007A280FD10DE044F400140AE044F4801462
:102E000001E044F440147278824202D104F5801447
:102E1000761C761C307866280BD013DC582877D0C7
:102E200009DC002875D04528F6D04628F4D047287C
:102E30001AD19DE118E0632835D0642879D065283F
:102E400012D195E1702873D008DC6728F1D0692889
:102E50006FD06E280DD06F2806D1B5E073282CD026
:102E6000752875D0782874D05A46179990476D1CEC
:102E700075E1C4F30250022809D003280DD0D9F817
:102E8000001004280DD00D6009F1040967E1D9F89C
:102E90000010EA17C1E90052F6E7D9F800100D80DA
:102EA000F2E70D70F0E719F8041B8DF80010002010
:102EB0008DF80100EA46012003E059F804AB4FF019
:102EC000FF3061074FF0000102D40DE008F101016D
:102ED0008846B9420FDA8045F8DB1AF80810002955
:102EE000F4D108E008F1010188468142FADB1AF8C2
:102EF00008100029F6D105985B46A0EB080721468B
:102F00003846179A00F097FA284400EB080507E0C6
:102F10004DE029E10DE01AF8010B5A461799904748
:102F2000B8F10108F7D25B4621463846179A13E1FB
:102F300042E00A220092C4F302524FF0000A022A31
:102F400008D059F804CB032A4FEAEC710AD00DE0FF
:102F500029E02AE009F1070121F00702F2E802C1A5
:102F6000914609E00FFA8CFC4FEAEC71042A03D178
:102F70004FFA8CFC4FEAEC71002907DA0A4600216F
:102F8000DCF1000C61EB02012D2202E0220504D5E8
:102F90002B228DF80420012203E0E20701D0202239
:102FA000F7E7904659E00A2102E010220DE01021D7
:102FB0004FF0000A00910BE010224FF0000A44F09D
:102FC00004040827009203E008224FF0000A009250
:102FD000C4F30252022A05D059F804CB0021032A77
:102FE00008D009E009F1070121F00702F2E802C167
:102FF000914605E01FFA8CFC042A01D10CF0FF0C6D
:103000004FF00008220728D5702806D0009B83F0D7
:10301000100353EA0A0305D00EE040228DF8042085
:10302000012208E05CEA010206D030228DF804207B
:103030008DF8050002229046009B83F0080353EAB6
:103040000A030AD15CEA010201D1620705D53022E8
:103050008DF804204FF001087F1E582804D034A0BA
:1030600003900EA802900DE036A0F9E753466046A3
:10307000009AFDF7A7F884460398825C0298401EE8
:10308000029002705CEA0100F0D1029806A9081AC9
:1030900000F1200A600702D524F4803400E0012703
:1030A000574502DDA7EB0A0000E0002000EB0A0113
:1030B000009005984144401A0590E00306D45B4611
:1030C0002146179A059800F0B6F90544002706E056
:1030D00001A85A46C05D179990476D1C7F1C474553
:1030E000F6DBE0030CD55B462146179A059800F005
:1030F000A2F9054404E030205A46179990476D1C08
:103100000099481E00900029F5DC08E00298029919
:103110005A460078491C0291179990476D1CBAF1E4
:103120000001AAF1010AF1DC65E1000009280100B3
:10313000303132333435363738396162636465662D
:1031400000000000303132333435363738394142EF
:10315000434445460000000000F05BF90544761C3E
:10316000307800287FF4ECAD19B0284600F04EB955
:10317000620700D4062709F1070222F0070CFCE8D9
:103180000223E14603F000485FEA080C02D00FF288
:10319000702C0DE05FEA045C02D50FF2682C07E0AA
:1031A0005FEAC47C02D00FF2602C01E0AFF2700C39
:1031B0004FF0FF3823F00043CDF850C065280CD005
:1031C00006DC452809D046281DD047283DD13DE0E2
:1031D000662818D067287ED138E00021112F01DB46
:1031E000112000E0781CCDE9000106A90EA8FFF728
:1031F000D9FCDDE90F010E9A03910021009207F13D
:10320000010A04914DE04FF000400097CDE9011014
:1032100006A90EA8FFF7C6FCDDE90F0203920E9B7C
:1032200011990022DDF80CA00093049211B9791CC9
:1032300000EB010AB7EB0A0004D4C0F1FF3007F13C
:10324000010A0490AAEB0700019044E0012F00DA84
:1032500001270021112F01DD112000E03846CDE9C2
:10326000000106A90EA8FFF79DFCDDE90F010E9AEB
:103270000391002104910092BA4621070CD40399CE
:10328000514500DA8A46BAF1010F05DD009AAAF12C
:103290000101515C302908D0B84202DA10F1040F64
:1032A00006DA0121CDE9011015E0AAF10101E9E7F3
:1032B000002805DC049901440491AAEB000102E016
:1032C000411C514500DD8A460499401A401C01907A
:1032D0004FF000400290200704D40198504501DBD4
:1032E000CDF8048000208DF84F0002980DF14F07B3
:1032F000B0F1004F25D02B200E9002984FF002081D
:1033000000280CDA404202902D200E9007E00A219E
:103310000298FDF7FDF83031029007F8011DB8F171
:103320000001A8F10108F2DC02980028EFD1791E13
:103330000E980870307800F0200040F0450007F843
:10334000020D12A8C01B00F107081498007800B104
:10335000012000EB0A01019801EBE071059841445E
:10336000401A401E0590E00306D45B462146179A9A
:10337000059800F060F805441498007818B15A4692
:10338000179990476D1CE00324D55B462146179A98
:10339000059800F050F805441CE00498002807DB6D
:1033A000DDE90301884203DD0098405C179901E0E4
:1033B000179930205A469047049805F10105401CA2
:1033C00004900198401E019004D12E205A4617996E
:1033D00090476D1CBAF10001AAF1010ADDDC05E09D
:1033E00017F8010B5A46179990476D1CB8F1000168
:1033F000A8F10108F4DC5B462146179A0598ABE674
:103400002D0000002B0000002000000030BCBDE8B3
:10341000C08F2DE9F041044600251E46174688045A
:1034200004D405E039462020B0476D1C641EF9D550
:103430002846BDE8F0812DE9F041044600251E46EE
:103440009046C80301D5302700E02027880404D522
:1034500005E041463846B0476D1C641EF9D5284644
:10346000BDE8F08138B504468DF800000223012242
:1034700069460248FEF720FE204638BD6000002065
:10348000FDF706FCFFF73BF8FEF790FEFEF770FE37
:10349000FEF7F0FEFEF73AFF00210B48FEF7BEFBF9
:1034A0000A4D4FF400544FF42F760120FDF7CCF96C
:1034B000014607A0FFF746FB21462846FDF7CDFB56
:1034C0003046FDF7F1FAF0E7200000200008004840
:1034D00064697374616E63653A25640D0A000000C7
:1034E00000000000000000000102030406070809B4
:1034F000A0860100400D0300801A060000350C0074
:1035000040420F0080841E0000093D0000127A0036
:103510000024F40000366E010048E801006CDC0273
:1035200000000000010203044835000800000020EC
:1035300020000000842B00086835000820000020CF
:1035400050050000942B000800000000000000005F
:10355000000000001000000001000000000000005A
:0835600000093D00000000001D
:040000050800018D61
:00000001FF
